:100000000AC024C023C022C021C020C01FC01EC0FF
:100010001DC01CC0E0C011271FBFCFE5D0E0DEBF70
:10002000CDBF20E0A0E4B0E0E6E5F2E402C031910B
:100030003D93A234B207D9F720E0A2E4B0E001C0BA
:100040001D93A634B207E1F7E8D003C1D9CF40E051
:100050004817B1F062B95FE976E891E0515070401D
:100060009040E1F700C0000012B95FE976E891E046
:10007000515070409040E1F700C000004F5FE8CF62
:1000800012B9089540E0481791F062B9EFE1FEE43B
:10009000E150F040E9F700C0000012B9EFE1FEE4E2
:1000A000E150F040E9F700C000004F5FECCF12B91B
:1000B00008954FE047BB47E041B912B943E04BBB5D
:1000C00008954FEA4DBB43E04CBB40E05DE757BDB0
:1000D00046BD1EBD4AE04DBD089547E84DBBEE9AB2
:1000E000EC9BFECF40E14DBB89B30895853C30F4D5
:1000F000843930F4833630F48FEF089584E0089526
:1001000083E0089582E00895482F6DE399D082A995
:10011000842F6BE395D083A9842F68E391D084A9C1
:10012000842F62E38DD085A9089541A14F3F09F442
:1001300041C040A140FF03C042A1841778F040A114
:10014000682F70E041FD0FC040A142FF1DC043A1D8
:1001500050E04B5F5F4F4617570794F446E040A9C5
:1001600040A142B9089542A150E04B5F5F4F46174E
:10017000570714F447E0F3CF43A18417D8F40BC01A
:1001800044A18417B8F410C044A150E04B5F5F4F06
:100190004617570714F444E0E2CF45A150E04B5F07
:1001A0005F4F4617570714F410A9DACF42B14770D2
:1001B0004095D7CF089541A14F3F21F467E08FE0EC
:1001C00061DFFCCF41A1443011F467E002C061A1BE
:1001D000660F83E03CCF1F930F930FB70F9310E090
:1001E0004F935F936F937F938F939F93AF93BF933F
:1001F000EF93FF9389B399DF42E04ABDFF91EF91FE
:10020000BF91AF919F918F917F916F915F914F912E
:100210000F910FBF0F911F9118954BDF43ED50E3E6
:1002200041505040E9F700C0000057DF5FDF81A96F
:1002300081A16ADFC0DF45DF47E042B97894FFCF94
:10024000002780FD060F660F11F08695D1F7802FED
:060250000895F894FFCFB1
:0202560007FFA0
:00000001FF
